:100000000C9456000C946B000C946B000C946B00D9
:100010000C946B000C946B000C946B000C946B00B4
:100020000C946B000C946B000C946B000C946B00A4
:100030000C946B000C946B000C946B000C946B0094
:100040000C946B000C946B000C946B000C946B0084
:100050000C946B000C946B000C946B000C946B0074
:100060000C946B000C946B000C946B000C946B0064
:100070000C946B000C946B000C946B000C946B0054
:100080000C946B000C946B000C946B000C946B0044
:100090000C946B000C946B000C946B000C946B0034
:1000A0000C946B000C946B000C946B0011241FBE1D
:1000B000CFEFDAE0DEBFCDBF11E0A0E0B1E0ECEDC4
:1000C000F1E002C005900D92AC30B107D9F70E9463
:1000D000DC000C94EC000C9400005C985D985E9839
:1000E0005F9880FD5C9A81FD5D9A82FD5E9A83FD3A
:1000F0005F9A2C9A00002C9881E28A95F1F7000013
:100100000895CF93C82F2E9882958F700E946D000E
:100110008C2F8F700E946D0083EF91E00197F1F7B3
:1001200000C00000CF910895CF93C82F2E9A8295DA
:100130008F700E946D008C2F8F700E946D0083EF76
:1001400091E00197F1F700C00000CF9108958AB1C6
:10015000806F8AB9269A259A249A2D985C985D9882
:100160005E985F982E982C9883ED90E30197F1F7B5
:1001700000C0000088E20E9481008CE00E948100A3
:1001800081E00E94810086E00C948100C901413029
:10019000510519F080589F4F089580549F4F08953E
:1001A000CF93DF93EC018991882319F00E9494008A
:1001B000FACFDF91CF9108950E94A70081E00E94BD
:1001C000810083EF91E00197F1F700C0000080E02B
:0C01D00091E00E94D000FFCFF894FFCF18
:0C01DC0048656C6C6F20576F726C6400FB
:00000001FF
