:100000000C9456000C946B000C946B000C946B00D9
:100010000C946B000C946B000C946B000C946B00B4
:100020000C946B000C946B000C946B000C946B00A4
:100030000C946B000C946B000C946B000C946B0094
:100040000C946B000C946B000C946B000C946B0084
:100050000C946B000C946B000C946B000C946B0074
:100060000C946B000C946B000C946B000C946B0064
:100070000C946B000C946B000C946B000C946B0054
:100080000C946B000C946B000C946B000C946B0044
:100090000C946B000C946B000C946B000C946B0034
:1000A0000C946B000C946B000C946B0011241FBE1D
:1000B000CFEFDAE0DEBFCDBF11E0A0E0B1E0E6E4D3
:1000C000FBE002C005900D92AC33B107D9F70E9456
:1000D0000C020C94A1050C940000CF93DF9300D088
:1000E00000D01F92CDB7DEB7BC01DE01119685E0CE
:1000F000FD0111928A95E9F7849A8C98FFEF29EF18
:1001000080E0F15020408040E1F700C000008C9A70
:1001100095ED9A95F1F70000849881E991E07C993A
:1001200005C00197E1F78FEF9FEF47C081E991E0AC
:100130007C9B03C00197E1F7F6CF20E030E0C901D6
:1001400087709927892B49F4F90193E0F595E79594
:100150009A95E1F7EA0FFB1F108281E991E07C9903
:1001600003C00197E1F7DFCF40E951E07C9B04C079
:1001700041505109D8F7D7CFF90183E0F595E795BC
:100180008A95E1F7EA0FFB1F9081990F40345140A7
:100190000CF4916090832F5F3F4F2832310579F640
:1001A0002B818D81281307C030E0FB013183208330
:1001B00080E090E002C08EEF9FEF0F900F900F90C5
:1001C0000F900F90DF91CF9108952C9883FF02C07C
:1001D0005F9A01C05F9882FF02C05E9A01C05E987C
:1001E00081FF02C05D9A01C05D9880FF02C05C9AE9
:1001F00001C05C9885E08A95F1F700002C9A95E0A3
:100200009A95F1F700002C988FE891E00197F1F7AB
:1002100000C000000895CF93C82F82958F700E9470
:10022000E5008C2F8F70CF910C94E500549A559A6D
:10023000569A579A269A259A249A5C985D985E98C1
:100240005F982E982D982C982FEF83EF91E02150F6
:1002500080409040E1F700C0000083E00E94E5008C
:100260008FE19EE40197F1F700C0000083E00E9457
:10027000E5008FE891E00197F1F700C0000083E00E
:100280000E94E50087EC90E00197F1F700C00000C4
:1002900082E00E94E50087EC90E00197F1F700C052
:1002A00000009FEF20E782E0915020408040E1F77E
:1002B00000C0000008952E980E940B0187EC90E08A
:1002C0000197F1F700C0000008952E9A0E940B01DB
:1002D0002E9887EC90E00197F1F700C00000089598
:1002E000CF93DF93EC018881882361F02E9A899166
:1002F0000E940B012E9887EC90E00197F1F700C067
:100300000000F1CFDF91CF9108951F93CF93DF933A
:10031000CDB7DEB728970FB6F894DEBF0FBECDBFBE
:1003200018E0E0E0F1E0DE01119601900D921A95DF
:10033000E1F7481759071CF0AC0141505109261745
:1003400037071CF09B0121503109440F551FE1E094
:10035000F0E0EC0FFD1FE40FF51F80819181820F0B
:10036000931F28960FB6F894DEBF0FBECDBFDF9166
:10037000CF911F910895FC01208101900020E9F7A1
:100380003197E81BF90BDC01BF0161507109AD0128
:10039000481B590B461757072CF411963C9111979F
:1003A0003D93F5CFE80FF91F3197208308950F9300
:1003B0001F93CF93DF93CDB7DEB761970FB6F89455
:1003C000DEBF0FBECDBF8C0140E150E0BC01CE01CD
:1003D00001960E949F02198AF80101900020E9F716
:1003E000AF01401B510B40515109B801605F7F4F75
:1003F000C8010E947B02BE016F5F7F4FC8010E944F
:100400008D0261960FB6F894DEBF0FBECDBFDF91AF
:10041000CF911F910F910895CF93DF93CDB7DEB7A2
:1004200062970FB6F894DEBF0FBECDBF8BE0E8E059
:10043000F1E08E010F5F1F4FD80101900D928A9558
:10044000E1F7FE013C9685E0DF011D928A95E9F710
:100450000E94160188E20E945B018CE00E945B0111
:1004600081E00E945B018FE39FE10197F1F700C0FB
:10047000000088E1E82E81E0F82ECE0141960E942E
:100480006D00009789F48A898F9389898F93FF92F1
:10049000EF921F930F930E94AE020F900F900F9058
:1004A0000F900F900F900EC08F3FAFEF9A0719F487
:1004B00063E271E004C0029629F46FE271E0C801C2
:1004C0000E94980281E00E945B018FE39FE1019707
:1004D000F1F700C0000080E80E945B01C8010E94A3
:1004E00070019FEFA7EAB1E69150A040B040E1F75C
:1004F00000C00000C2CF6817790768F4FB01DC0177
:10050000E40FF51FA40FB51F02C002900E924150D8
:100510005040D8F708950C94BC04FB01DC010D9009
:100520000020E9F7119701900D920020E1F708955E
:10053000FB01DC0101900D920020E1F70895FB0121
:10054000DC014150504048F001900D920020C9F765
:1005500001C01D9241505040E0F70895AEE0B0E078
:10056000E4EBF2E00C9478050D891E8986E08C831B
:100570001A8309838FEF9FE79E838D83AE01475EC9
:100580005F4F6F89788DCE0101960E94D002EF8176
:10059000F885E00FF11F10822E96E4E00C9494058C
:1005A000ABE0B0E0E6EDF2E00C946A056C017B0193
:1005B0008A01FC0117821682838181FFCCC1CE01A2
:1005C00001963C01F6019381F70193FD859193FF1C
:1005D00081917F01882309F4BAC1853239F493FDF2
:1005E000859193FF81917F01853229F4B60190E0D6
:1005F0000E94D004E7CF912C212C312CFFE1F31580
:10060000D8F08B3279F038F4803279F08332A1F46B
:10061000232D20611DC08D3261F0803369F4232DBC
:10062000216016C0832D8260382EE32DE4603E2EBB
:100630002AC0F32DF8601DC037FC2DC020ED280F17
:100640002A3040F08E32B9F436FC81C1232D20646B
:10065000322E19C036FE06C08AE0989E200D112465
:10066000922E11C0EAE02E9E200D1124222EF32D91
:10067000F0623F2E08C08C3621F4832D8068382E1E
:1006800002C0883641F4F70193FD859193FF819173
:100690007F018111B3CF982F9F7D9554933028F41B
:1006A0000C5F1F4F9FE399830DC0833631F0833772
:1006B00071F0833509F059C021C0F8018081898328
:1006C0000E5F1F4F88248394912C530113C028017F
:1006D000F2E04F0E511CF801A080B18036FE03C03D
:1006E000692D70E002C06FEF7FEFC5010E94C50465
:1006F0004C018201F32DFF773F2E16C0280122E026
:10070000420E511CF801A080B18036FE03C0692D55
:1007100070E002C06FEF7FEFC5010E94B1044C0191
:10072000F32DF0683F2E820133FC1BC0822D90E038
:1007300088169906B0F4B60180E290E00E94D004D9
:100740002A94F4CFF50137FC859137FE81915F0142
:10075000B60190E00E94D00421102A9421E0821A70
:1007600091088114910471F7E8C0843611F089363C
:1007700041F5F80137FE07C0608171818281938164
:100780000C5F1F4F08C060817181072E000C880B21
:10079000990B0E5F1F4FF32DFF763F2E97FF09C079
:1007A00090958095709561957F4F8F4F9F4FF06822
:1007B0003F2E2AE030E0A3010E940C05882E861807
:1007C00045C0853731F4232D2F7EB22E2AE030E04C
:1007D00025C0932D997FB92E8F36C1F018F4883536
:1007E00079F0B5C0803719F0883721F0B0C0E92F13
:1007F000E061BE2EB4FE0DC0FB2DF460BF2E09C01B
:1008000034FE0AC0292F2660B22E06C028E030E050
:1008100005C020E130E002C020E132E0F801B7FE7F
:1008200007C060817181828193810C5F1F4F06C078
:100830006081718180E090E00E5F1F4FA3010E94F4
:100840000C05882E8618FB2DFF773F2E36FE0DC037
:10085000232D2E7FA22E891458F434FE0BC032FCB7
:1008600009C0832D8E7EA82E05C0B82CA32C03C0F2
:10087000B82C01C0B92CA4FE0FC0FE01E80DF11D7B
:100880008081803321F49A2D997EA92E09C0A2FE81
:1008900006C0B394B39404C08A2D867809F0B3944B
:1008A000A3FC11C0A0FE06C0B21488F4280C922C40
:1008B0009B180EC0B21460F4B60180E290E00E9472
:1008C000D004B394F7CFB21418F42B1802C0982CAC
:1008D000212CA4FE10C0B60180E390E00E94D00459
:1008E000A2FE17C0A1FC03C088E790E002C088E523
:1008F00090E0B6010CC08A2D867859F0A1FE02C0A6
:100900008BE201C080E2A7FC8DE2B60190E00E947C
:10091000D004891438F4B60180E390E00E94D0043A
:100920009A94F7CF8A94F301E80DF11D8081B60106
:1009300090E00E94D0048110F5CF222009F442CE2D
:10094000B60180E290E00E94D0042A94F6CFF6012E
:100950008681978102C08FEF9FEF2B96E2E10C9486
:100960008605FC010590615070400110D8F7809514
:1009700090958E0F9F1F0895FB01DC0102C001902E
:100980000D9241505040D8F70895FC0161507040DD
:1009900001900110D8F7809590958E0F9F1F0895B4
:1009A0000F931F93CF93DF93FB01238121FD03C09E
:1009B0008FEF9FEF2CC022FF16C046815781248104
:1009C00035814217530744F4A081B1819D012F5F07
:1009D0003F4F318320838C93268137812F5F3F4F98
:1009E0003783268314C08B01EC01FB010084F18561
:1009F000E02D0995892BE1F6D80116968D919C91F1
:100A00001797019617969C938E931697CE01DF91B8
:100A1000CF911F910F910895FA01AA27283051F123
:100A2000203181F1E8946F936E7F6E5F7F4F8F4F1F
:100A30009F4FAF4FB1E03ED0B4E03CD0670F781F7E
:100A4000891F9A1FA11D680F791F8A1F911DA11D63
:100A50006A0F711D811D911DA11D20D009F468949C
:100A60003F912AE0269F11243019305D3193DEF644
:100A7000CF010895462F4770405D4193B3E00FD0FA
:100A8000C9F7F6CF462F4F70405D4A3318F0495DE5
:100A900031FD4052419302D0A9F7EACFB4E0A695C8
:100AA0009795879577956795BA95C9F700976105EA
:100AB000710508959B01AC010A2E06945795479540
:100AC00037952795BA95C9F7620F731F841F951F35
:100AD000A01D08952F923F924F925F926F927F9246
:100AE0008F929F92AF92BF92CF92DF92EF92FF923E
:100AF0000F931F93CF93DF93CDB7DEB7CA1BDB0BEA
:100B00000FB6F894DEBF0FBECDBF09942A8839888E
:100B100048885F846E847D848C849B84AA84B98495
:100B2000C884DF80EE80FD800C811B81AA81B981A1
:100B3000CE0FD11D0FB6F894DEBF0FBECDBFED01B5
:060B40000895F894FFCFB8
:100B4600000040001400540054656D703A202D2DAD
:100B5600204300000000000054656D703A202564B3
:100B660020430054696D656F7574204572720043A9
:0C0B76006865636B73756D20457272003A
:00000001FF
