:100000000C9456000C946B000C946B000C946B00D9
:100010000C946B000C946B000C946B000C946B00B4
:100020000C946B000C946B000C946B000C946B00A4
:100030000C946B000C946B000C946B000C946B0094
:100040000C946B000C946B000C946B000C946B0084
:100050000C946B000C946B000C946B000C946B0074
:100060000C946B000C946B000C946B000C946B0064
:100070000C946B000C946B000C946B000C946B0054
:100080000C946B000C946B000C946B000C946B0044
:100090000C946B000C946B000C946B000C946B0034
:1000A0000C946B000C946B000C946B0011241FBE1D
:1000B000CFEFDAE0DEBFCDBF11E0A0E0B1E0ECE2CF
:1000C000F6E002C005900D92AE32B107D9F70E945A
:1000D00041020C9414030C940000CF93DF9300D0E2
:1000E00000D01F92CDB7DEB7DC01849A8C982FEF39
:1000F00089EF90E0215080409040E1F700C000007F
:100100008C9A25ED2A95F1F70000849881E991E019
:100110007C9905C00197E1F78FEF9FEF56C081E909
:1001200091E07C9B03C00197E1F7F6CF20E030E03F
:10013000C90187709927892B69F4F90193E0F59536
:10014000E7959A95E1F781E090E08C0F9D1FE80F0D
:10015000F91F108281E991E07C9903C00197E1F7D2
:10016000DBCF40E951E07C9B04C041505109D8F7F6
:10017000D3CFF90183E0F595E7958A95E1F781E022
:1001800090E08C0F9D1FE80FF91F9081990F40346C
:1001900051400CF4916090832F5F3F4F283231051E
:1001A00039F649812B81942F920F8D8198130BC0C2
:1001B00050E013965C934E93129730E02D933C934E
:1001C00080E090E002C08EEF9FEF0F900F900F90B5
:1001D0000F900F90DF91CF9108952C9883FF02C06C
:1001E0005F9A01C05F9882FF02C05E9A01C05E986C
:1001F00081FF02C05D9A01C05D9880FF02C05C9AD9
:1002000001C05C9885E08A95F1F700002C9A95E092
:100210009A95F1F700002C988FE891E00197F1F79B
:1002200000C000000895549A559A569A579A269AF3
:10023000259A249A5C985D985E985F982E982D98E0
:100240002C982FEF83EF91E0215080409040E1F710
:1002500000C0000083E00E94ED008FE19EE4019762
:10026000F1F700C0000083E00E94ED008FE891E00C
:100270000197F1F700C0000083E00E94ED0087ECD9
:1002800090E00197F1F700C0000082E00E94ED00CD
:1002900087EC90E00197F1F700C000009FEF20E7A6
:1002A00082E0915020408040E1F700C000000895B6
:1002B000CF93C82F2E9882958F700E94ED008C2FBF
:1002C0008F700E94ED0087EC90E00197F1F700C07D
:1002D0000000CF910895CF93C82F2E9A82958F70EA
:1002E0000E94ED008C2F8F700E94ED002E9887ECFD
:1002F00090E00197F1F700C00000CF9108950F93AF
:100300001F93CF93DF93EC018C01FE01019000203D
:10031000E9F73197EC1BFD0BC8018C1B9D0B8E1769
:100320009F0730F4F80181918F010E946B01EDCF9E
:10033000DF91CF911F910F910895CF93DF93CDB7A8
:10034000DEB7A0970FB6F894DEBF0FBECDBFAB01EE
:10035000BE016F5F7F4F0E94CB02CE0101960E94CB
:100360007F01A0960FB6F894DEBF0FBECDBFDF9120
:10037000CF9108951F93CF93DF93CDB7DEB7289722
:100380000FB6F894DEBF0FBECDBF18E0E0E0F1E09D
:10039000DE01119601900D921A95E1F74817590761
:1003A0001CF0AC0141505109261737071CF09B0186
:1003B00021503109440F551FE1E0F0E0EC0FFD1F23
:1003C000E40FF51F80819181820F931F28960FB64D
:1003D000F894DEBF0FBECDBFDF91CF911F9108957E
:1003E000FC01208101900020E9F73197E81BF90B0F
:1003F000DC01BF0161507109AD01481B590B461763
:1004000057072CF411963C9111973D93F5CFE80FC7
:10041000F91F3197208308950F931F93CF93DF9394
:10042000CDB7DEB761970FB6F894DEBF0FBECDBF74
:100430008C0140E150E0BC01CE0101960E94BC025B
:10044000198AF80101900020E9F7AF01401B510B18
:1004500040515109B801605F7F4FC8010E949F025F
:10046000BE016F5F7F4FC8010E94B10261960FB657
:10047000F894DEBF0FBECDBFDF91CF911F910F91DA
:1004800008950F931F93CF93DF9300D000D0CDB783
:10049000DEB70E94130188E20E9458018CE00E949E
:1004A000580181E00E9458018FE39CE90197F1F720
:1004B00000C00000CE0101960E946D008C0197FFE4
:1004C0000AC088E091E00E947F016AE070E0C80104
:1004D0000E949D0129C082E191E00E947F016AE0B3
:1004E00070E089819A810E949D018DE191E00E94D6
:1004F0007F0120E030E041E050E060E170E082E028
:1005000090E00E94BA0180680E9458018FE191E05A
:100510000E947F016AE070E08B819C810E949D01B6
:100520008CE291E00E947F0180E090E00F900F90BC
:100530000F900F90DF91CF911F910F910895681741
:10054000790768F4FB01DC01E40FF51FA40FB51F68
:1005500002C002900E9241505040D8F708950C947A
:10056000FB02FB01DC010D900020E9F711970190DF
:100570000D920020E1F70895FB01DC01415050404D
:1005800048F001900D920020C9F701C01D92415022
:100590005040E0F708954532510520F4423010F004
:1005A0000C94D602FB011082CB010895BB274A3080
:1005B00031F4992322F4BDE2909581959F4F0C94DC
:1005C000E202BB27FB015527AA27880F991FAA1F04
:1005D000A41710F0A41B83955051B9F7A05DAA335E
:1005E00008F0A95DA193009779F7B111B193119229
:1005F000CB010C940403FB01DC0102C001900D92BD
:1006000041505040D8F70895DC01FC01672F7191EB
:100610007723E1F7329704C07C916D9370836291E8
:0C062000AE17BF07C8F30895F894FFCF91
:10062C000000400014005400457272657572203A47
:10063C00200054656D7065722E203A2000430048EE
:0E064C00756D69646974C3A9203A2000250009
:00000001FF
