:100000000C9456000C946B000C946B000C946B00D9
:100010000C946B000C946B000C946B000C946B00B4
:100020000C946B000C946B000C946B000C946B00A4
:100030000C946B000C946B000C946B000C946B0094
:100040000C946B000C946B000C946B000C946B0084
:100050000C946B000C946B000C946B000C946B0074
:100060000C946B000C946B000C946B000C946B0064
:100070000C946B000C946B000C946B000C946B0054
:100080000C946B000C946B000C946B000C946B0044
:100090000C946B000C946B000C946B000C946B0034
:1000A0000C946B000C946B000C946B0011241FBE1D
:1000B000CFEFDAE0DEBFCDBF11E0A0E0B1E0EAE1D2
:1000C000F4E002C005900D92A431B107D9F70E9467
:1000D00094010C940B020C9400002C9883FF02C036
:1000E0005F9A01C05F9882FF02C05E9A01C05E986D
:1000F00081FF02C05D9A01C05D9880FF02C05C9ADA
:1001000001C05C9885E08A95F1F700002C9A95E093
:100110009A95F1F700002C988FE891E00197F1F79C
:1001200000C000000895CF93C82F82958F700E9461
:100130006D008C2F8F70CF910C946D00549A559A4E
:10014000569A579A269A259A249A5C985D985E98B2
:100150005F982E982D982C982FEF83EF91E02150E7
:1001600080409040E1F700C0000083E00E946D00F5
:100170008FE19EE40197F1F700C0000083E00E9448
:100180006D008FE891E00197F1F700C0000083E077
:100190000E946D0087EC90E00197F1F700C000002D
:1001A00082E00E946D0087EC90E00197F1F700C0BB
:1001B00000009FEF20E782E0915020408040E1F76F
:1001C00000C0000008952E980E94930087EC90E0F4
:1001D0000197F1F700C0000008952E9A0E94930045
:1001E0002E9887EC90E00197F1F700C00000089589
:1001F000CF93DF93EC018881882361F02E9A899157
:100200000E9493002E9887EC90E00197F1F700C0D0
:100210000000F1CFDF91CF9108951F93CF93DF932B
:10022000CDB7DEB728970FB6F894DEBF0FBECDBFAF
:1002300018E0E0E0F1E0DE01119601900D921A95D0
:10024000E1F7481759071CF0AC0141505109261736
:1002500037071CF09B0121503109440F551FE1E085
:10026000F0E0EC0FFD1FE40FF51F80819181820FFC
:10027000931F28960FB6F894DEBF0FBECDBFDF9157
:10028000CF911F910895FC01208101900020E9F792
:100290003197E81BF90BDC01BF0161507109AD0119
:1002A000481B590B461757072CF411963C91119790
:1002B0003D93F5CFE80FF91F3197208308950F93F1
:1002C0001F93CF93DF93CDB7DEB761970FB6F89446
:1002D000DEBF0FBECDBF8C0140E150E0BC01CE01BE
:1002E00001960E94F301198AF80101900020E9F7B4
:1002F000AF01401B510B40515109B801605F7F4F66
:10030000C8010E94D601BE016F5F7F4FC8010E94E5
:10031000E80161960FB6F894DEBF0FBECDBFDF9146
:10032000CF911F910F910895CF93DF93CDB7DEB793
:100330002C970FB6F894DEBF0FBECDBF8CE0E8E07F
:10034000F1E0DE01119601900D928A95E1F70E948D
:100350009E0088E20E94E3008CE00E94E30081E0BE
:100360000E94E3008FE39FE10197F1F700C00000D6
:1003700080E80E94E30000E110E080E20E94ED00CE
:1003800001501109D1F780E80E94E300CE010196E7
:100390000E94F800CE0101960E9443019FEF29E6DA
:1003A00088E1915020408040E1F7E0CF681779075D
:1003B00068F4FB01DC01E40FF51FA40FB51F02C0B8
:1003C00002900E9241505040D8F708950C940202CA
:1003D000FB01DC010D900020E9F7119701900D92CF
:1003E0000020E1F70895FB01DC014150504048F046
:1003F00001900D920020C9F701C01D92415050405C
:10040000E0F70895FB01DC0102C001900D9241501C
:0A0410005040D8F70895F894FFCF8C
:10041A00000040001400540048656C6C6F20576F50
:04042A00726C64008C
:00000001FF
